:1000000045C0000061C000005FC000005DC000008E
:100010005BC0000059C0000057C0000055C0000080
:1000200053C0000051C000004FC000004DC0000090
:100030004BC0000049C0000047C0000045C00000A0
:10004000AEC0000041C000008BC000003DC00000F9
:100050003BC0000039C0000037C0000035C00000C0
:1000600033C0000031C000002FC000002DC00000D0
:100070002BC0000029C0000027C0000025C00000E0
:1000800023C0000021C000001FC0000011241FBEBB
:10009000CFEFD0E1DEBFCDBF11E0A0E0B1E0E0EEF8
:1000A000F1E100E00BBF02C007900D92AA30B1074A
:1000B000D9F722E0AAE0B1E001C01D92A537B2074E
:1000C000E1F7B7D40C94EE089BCF2CB53DB5232BAC
:1000D000E1F325E535E545E051E40E948B0820E099
:1000E00030E048E453E460D62FD7673881E07807E2
:1000F00034F46A3071052CF46AE070E002C066E8FE
:1001000071E0CB01089690938500809384009BBD9D
:100110008ABD68507109709387006093860079BD2D
:1001200068BD0895CF9318BA88E833D683E431D6F2
:10013000C1E0C8BB18BA80E92CD680E02AD6C8BB7B
:1001400018BA80E226D6C8BBCF91089597B1907FA8
:10015000890F87B9369A349BFECF84B195B1089543
:100160001F920F920FB60F9211240BB60F928F931E
:10017000EF93FF93E091540281E08E0F809354023D
:10018000F0E08CB1E25BFE4F8083FF91EF918F91A5
:100190000F900BBE0F900FBE0F901F9018951F92DF
:1001A0000F920FB60F9211240BB60F928F929F925F
:1001B000AF92BF92CF92DF92EF92FF922F933F9335
:1001C0004F935F936F937F938F939F93AF93BF935F
:1001D000CF93EF93FF9383E882BFC1E0C5BB80E07C
:1001E000B5DFBC01990F880B990BE1D660936B02C8
:1001F00070936C0280936D0290936E0218BA88EE31
:10020000C8D5C8BB18BA88E6C4D5C8D5C82ED12C65
:10021000E12CF12CFE2CED2CDC2CCC24BFD5C82AF3
:10022000FE2CED2CDC2CCC24B9D5C82AFE2CED2CD0
:10023000DC2CCC24B3D5C8BBC82AF094E094D0946D
:10024000C094C11CD11CE11CF11CC0926F02D09261
:100250007002E0927102F092720283E085BB6091BD
:100260006F027091700280917102909172029FD61C
:1002700020E030E042EA58E4FFD59B01AC0194D580
:100280002BED3FE049E450E446D76093460170937C
:100290004701809348019093490190916A0289E255
:1002A000989F812D112482958F7024E6829F90194A
:1002B000112491111BC110926A0260914A01709140
:1002C0004B0180914C0190914D012091460130915C
:1002D0004701409148015091490165D560933E0125
:1002E00070933F01809340019093410160913E01E2
:1002F00070913F01809140019091410120913A011C
:1003000030913B0140913C0150913D014CD52DEC89
:100310003CEC4CE45DE3B0D560933601709337015B
:10032000809338019093390180913E0190913F0173
:10033000A0914001B091410180933A0190933B011B
:10034000A0933C01B0933D0160913E0170913F014B
:100350008091400190914101809036019090370149
:10036000A0903801B090390129EF3FE049E451E411
:10037000D2D66B017C012DEC3CEC4CEC5DE3C5016D
:10038000B401C9D69B01AC01C701B6010DD560937C
:100390000A0170930B0180930C0190930D01609101
:1003A000050170910601809107019091080120E0FC
:1003B00030E0A901ACD688230CF44DC060910A014D
:1003C00070910B0180910C0190910D01209105011C
:1003D00030910601409107015091080198D6882379
:1003E0008CF08091050190910601A0910701B091D8
:1003F000080180930A0190930B01A0930C01B09324
:100400000D0174C08091050190910601A091070132
:10041000B091080120910A0130910B0140910C012B
:1004200050910D01BC01CD01905871D688230CF478
:100430005DC08091050190910601A0910701B091E6
:100440000801B05880930A0190930B01A0930C010E
:10045000B0930D014BC060910A0170910B01809126
:100460000C0190910D012091050130910601409100
:10047000070150910801FCD418168CF080910501F9
:1004800090910601A0910701B091080180930A01A3
:1004900090930B01A0930C01B0930D0127C08091A4
:1004A000050190910601A0910701B09108012091EA
:1004B0000A0130910B0140910C0150910D01BC01DA
:1004C000CD019058D5D418168CF0809105019091EB
:1004D0000601A0910701B0910801B05880930A016C
:1004E00090930B01A0930C01B0930D0120916A022F
:1004F0008DEC289F812D1124869586958695880FF1
:10050000982F990F990F890F281343C160914601C5
:1005100070914701809148019091490120914201D9
:100520003091430140914401509145013CD42AE06F
:1005300037ED43EA5BE3A0D460933201709333015B
:100540008093340190933501809146019091470149
:10055000A0914801B09149018093420190934301D9
:10056000A0934401B093450180910A0190910B0141
:10057000A0910C01B0910D0180932E0190932F0159
:10058000A0933001B093310160912E0170912F0141
:1005900080913001909131012091320130913301ED
:1005A0004091340150913501FED360932A0170933C
:1005B0002B0180932C0190932D0160912A01709161
:1005C0002B0180912C0190912D01209126013091D9
:1005D00027014091280150912901E6D3609326011B
:1005E00070932701809328019093290180902A011C
:1005F00090902B01A0902C01B0902D0160912601CC
:1006000070912701809128019091290121E73BEC0D
:100610004EE254E480D52AE037ED43EA5BE37BD534
:100620006B017C0126EE3FE348E250E4C501B401D2
:1006300072D59B01AC01C701B601B6D360930E0120
:1006400070930F01809310019093110160910E013E
:1006500070910F0180911001909111012091010181
:1006600030910201409103015091040150D588233B
:100670000CF43CC060910E0170910F01809110014B
:1006800090911101209101013091020140910301EB
:1006900050910401C0902601D0902701E0902801DC
:1006A000F090290180D32AEC33EC42EC5EE333D5A1
:1006B0009B01AC01C701B60176D36093260170930C
:1006C0002701809328019093290180910101909145
:1006D0000201A0910301B091040180930E01909357
:1006E0000F01A0931001B093110153C0809101013B
:1006F00090910201A0910301B091040120910E019B
:1007000030910F014091100150911101BC01CD01B8
:100710009058FDD488230CF43CC060910E01709178
:100720000F018091100190911101209101013091F0
:1007300002014091030150910401C0902601D09024
:100740002701E0902801F09029012ED32AEC33EC08
:1007500042EC5EE3E0D49B01AC01C701B60123D3B8
:1007600060932601709327018093280190932901BB
:100770008091010190910201A0910301B0910401C7
:10078000B05880930E0190930F01A0931001B09385
:10079000110180916A028F5F80936A0280910E013D
:1007A00090910F01A0911001B091110180931E0151
:1007B00090931F01A0932001B093210160916B02DF
:1007C00070916C0280916D0290916E0220E030E099
:1007D00040E85AE3A0D420E030E040EA50E49BD463
:1007E00020E030E040E250E4DED220E030E040E2C1
:1007F00051E491D4DC01CB01B05880932201909355
:100800002301A0932401B093250160911E017091F2
:100810001F018091200190912101209122013091AE
:1008200023014091240150912501BDD260931A010A
:1008300070931B0180931C0190931D0160911A011C
:1008400070911B0180911C0190911D012091160156
:10085000309117014091180150911901A5D2609370
:1008600016017093170180931801909319018090DD
:100870001A0190901B01A0901C01B0901D01609185
:10088000160170911701809118019091190123E3CD
:100890003BE34AE055E43FD42FE632E143E05AE33C
:1008A0003AD46B017C0128EB3FEA43E55FE3C501E5
:1008B000B40131D49B01AC01C701B60175D244D358
:1008C00070931301609312016091320170913301B2
:1008D0008091340190913501E0901201F090130164
:1008E0002FED30EE4BE85DE316D44B015C01B70110
:1008F000FF0C880B990B5BD39B01AC01C501B401C4
:1009000053D222D37093130160931201809112018C
:1009100090911301489764F1609112017091130155
:10092000C0901601D0901701E0901801F0901901C5
:1009300068517109072E000C880B990B38D32FE9E9
:100940003DEC4AE95FE3E7D39B01AC01C701B60187
:100950002AD2609316017093170180931801909327
:10096000190188E190E0909313018093120132C045
:100970008091120190911301893E9F4F5CF5609127
:10098000120170911301C0901601D0901701E090F0
:100990001801F0901901685E7F4F072E000C880B3C
:1009A000990B05D32FE93DEC4AE95FE3B4D39B01F2
:1009B000AC01C701B601F7D160931601709317011E
:1009C000809318019093190188EE9FEF9093130183
:1009D000809312016091120170911301072E000C97
:1009E000880B990BE4D271DB809114019091150171
:1009F00001969093150180931401FF91EF91CF918F
:100A0000BF91AF919F918F917F916F915F914F9126
:100A10003F912F91FF90EF90DF90CF90BF90AF90DC
:100A20009F908F900F900BBE0F900FBE0F901F9056
:100A30001895CF93DF93CDB7DEB764970FB6F894D0
:100A4000DEBF0FBECDBF8EEF8C838B838A838983FD
:100A500047D18DD195D151D155D167D1109289000F
:100A6000109288001DBC1CBC60E070E0CB012DDB47
:100A700079D158DB83E882BF7894B12C0F2EF4E152
:100A80009F2EF02D0F2EF3E0AF2EF02D7E0185E18D
:100A9000E80EF11C0F2EF6E5CF2EF2E0DF2EF02D42
:100AA0006894772471F888248394BAC08091740282
:100AB0008130E1F018F08230E1F1ADC0E0917302D5
:100AC000F0E0E25BFE4F80818F3F69F48091550238
:100AD0008F5F8093550280915502843009F09BC04E
:100AE0008092740298C01092550295C0E091550210
:100AF00081E08E0F80935502F0E0A0917302B0E088
:100B0000A25BBE4F8C91EA5AFD4F808380915502C3
:100B1000883009F080C0F60195818091000198131A
:100B200003C07092740277C0109274021092550242
:100B300072C0E091550281E08E0F80935502F0E083
:100B4000A0917302B0E0A25BBE4F8C91EA5AFD4FB8
:100B50008083E0917302F0E0E25BFE4F8081B80E8B
:100B6000F601948180915502981344C08781B81290
:100B70003BC086818230C1F5608571858285938511
:100B800016D220E030E04AE754E476D160934A017F
:100B900070934B0180934C0190934D01F601648555
:100BA00075858685978503D220E030E04AE754E4D6
:100BB00063D16093050170930601809307019093C0
:100BC0000801F6016089718982899389F0D120E05A
:100BD00030E04AE754E450D1609301017093020180
:100BE00080930301909304011092740210925502B5
:100BF000B12C11C0F601948180915502981720F014
:100C000080915502853138F086E6BFD0109274028B
:100C100010925502B12C809173028F5F8093730202
:100C20009091730280915402981340CF80911401E7
:100C3000909115014497A4F310921501109214019C
:100C4000809100018E839D82AF821886609146015B
:100C500070914701809148019091490120E030E076
:100C60004AE754E458D270D169877A878B879C878A
:100C7000609132017091330180913401909135017E
:100C800020E030E04AE754E446D25ED16D877E87AB
:100C90008F87988B609122017091230180912401AC
:100CA0009091250120E030E04AE754E434D24CD161
:100CB000698B7A8B8B8B9C8BFE0139968191988501
:100CC000890F8887EE15FF05C9F78E010F5F1F4F4B
:100CD000F80181918F0159D00E151F05C9F7A0CFDA
:100CE0008FEF8ABB84BB88E081BB87E687BB8AE144
:100CF00082B91BBA87E088BB089584E083BF81E096
:100D000087BF089582EE8FBD81E18EBD8FE891E0AF
:100D100097BD86BD10927900109278001BBC1ABC5A
:100D200019BC18BC1DBC1CBC089582EB80938B00C1
:100D300081E180938A008FE891E090938100809315
:100D4000800010928300109282001092870010920F
:100D500086001092850010928400109289001092F3
:100D60008800089580E487B986E886B908951BB89D
:100D700088E98AB986E08093950087E689B9089565
:100D800080E58DB981E08EB908955D9BFECF8CB969
:100D900008958FB9779BFECF8FB108951FB8779BC9
:100DA000FECF8FB108955058BB27AA270ED075C12A
:100DB00066D130F06BD120F031F49F3F11F41EF476
:100DC0005BC10EF4E095E7FB51C1E92F77D180F3C9
:100DD000BA17620773078407950718F071F49EF538
:100DE0008FC10EF4E0950B2EBA2FA02D0B01B90187
:100DF00090010C01CA01A0011124FF27591B99F091
:100E0000593F50F4503E68F11A16F040A22F232F9C
:100E1000342F4427585FF3CF469537952795A795EC
:100E2000F0405395C9F77EF41F16BA0B620B730B93
:100E3000840BBAF09150A1F0FF0FBB1F661F771F04
:100E4000881FC2F70EC0BA0F621F731F841F48F4B9
:100E5000879577956795B795F7959E3F08F0B3CF3F
:100E60009395880F08F09927EE0F97958795089529
:100E7000D9D008F481E008950CD00FC107D140F01B
:100E8000FED030F021F45F3F19F0F0C0511139C1AC
:100E9000F3C014D198F39923C9F35523B1F3951BEB
:100EA000550BBB27AA2762177307840738F09F5F8B
:100EB0005F4F220F331F441FAA1FA9F333D00E2EFA
:100EC0003AF0E0E830D091505040E695001CCAF767
:100ED00029D0FE2F27D0660F771F881FBB1F26172C
:100EE00037074807AB07B0E809F0BB0B802DBF01FF
:100EF000FF2793585F4F2AF09E3F510568F0B6C018
:100F000000C15F3FECF3983EDCF3869577956795DB
:100F1000B795F7959F5FC9F7880F911D96958795AF
:100F200097F90895E1E0660F771F881FBB1F6217CE
:100F300073078407BA0720F0621B730B840BBA0B8C
:100F4000EE1F88F7E095089504D06894B111D9C0D8
:100F50000895BCD088F09F5790F0B92F9927B751CA
:100F6000A0F0D1F0660F771F881F991F1AF0BA956D
:100F7000C9F712C0B13081F0C3D0B1E00895C0C04C
:100F8000672F782F8827B85F39F0B93FCCF3869563
:100F900077956795B395D9F73EF4909580957095C0
:100FA00061957F4F8F4F9F4F0895E89409C097FB3D
:100FB0003EF490958095709561957F4F8F4F9F4F30
:100FC0009923A9F0F92F96E9BB279395F695879574
:100FD00077956795B795F111F8CFFAF4BB0F11F437
:100FE00060FF1BC06F5F7F4F8F4F9F4F16C08823DE
:100FF00011F096E911C0772321F09EE8872F762F14
:1010000005C0662371F096E8862F70E060E02AF054
:101010009A95660F771F881FDAF7880F9695879540
:1010200097F90895990F0008550FAA0BE0E8FEEF15
:1010300016161706E807F907C0F012161306E4079C
:10104000F50798F0621B730B840B950B39F40A2695
:1010500061F0232B242B252B21F408950A2609F473
:10106000A140A6958FEF811D811D089597F99F6777
:1010700080E870E060E008959FEF80EC0895002420
:101080000A941616170618060906089500240A94ED
:1010900012161306140605060895092E0394000C73
:1010A00011F4882352F0BB0F40F4BF2B11F460FF02
:1010B00004C06F5F7F4F8F4F9F4F089557FD90582B
:1010C000440F551F59F05F3F71F04795880F97FB0C
:1010D000991F61F09F3F79F08795089512161306C6
:1010E0001406551FF2CF4695F1DF08C016161706F5
:1010F0001806991FF1CF869571056105089408952A
:10110000E894BB2766277727CB0197F908958ADFF4
:1011100008F48FEF08950BD0C0CFB1DF28F0B6DF11
:1011200018F0952309F0A2CFA7CF1124EACFC6DF8C
:10113000A0F3959FD1F3950F50E0551F629FF001EA
:10114000729FBB27F00DB11D639FAA27F00DB11D43
:10115000AA1F649F6627B00DA11D661F829F2227CC
:10116000B00DA11D621F739FB00DA11D621F839F53
:10117000A00D611D221F749F3327A00D611D231F29
:10118000849F600D211D822F762F6A2F11249F5777
:1011900050408AF0E1F088234AF0EE0FFF1FBB1F9A
:1011A000661F771F881F91505040A9F79E3F510539
:1011B00070F05CCFA6CF5F3FECF3983EDCF38695F2
:1011C00077956795B795F795E7959F5FC1F7FE2BE4
:1011D000880F911D9695879597F90895F894FFCFFC
:0A11E000010000803F0000803F0086
:00000001FF
